{
  "contractName": "FrenteLoja",
  "abi": [
    {
      "constant": true,
      "inputs": [
        {
          "name": "",
          "type": "bytes32"
        }
      ],
      "name": "vendas",
      "outputs": [
        {
          "name": "codProduto",
          "type": "uint256"
        },
        {
          "name": "timestamp",
          "type": "uint256"
        },
        {
          "name": "buyer",
          "type": "address"
        }
      ],
      "payable": false,
      "stateMutability": "view",
      "type": "function"
    },
    {
      "inputs": [],
      "payable": false,
      "stateMutability": "nonpayable",
      "type": "constructor"
    },
    {
      "constant": false,
      "inputs": [
        {
          "name": "bar",
          "type": "uint256"
        },
        {
          "name": "des",
          "type": "string"
        },
        {
          "name": "preco",
          "type": "uint256"
        },
        {
          "name": "qtd",
          "type": "uint8"
        }
      ],
      "name": "addProdutos",
      "outputs": [
        {
          "name": "",
          "type": "bool"
        }
      ],
      "payable": false,
      "stateMutability": "nonpayable",
      "type": "function"
    },
    {
      "constant": false,
      "inputs": [
        {
          "name": "bar",
          "type": "uint256"
        },
        {
          "name": "qtd",
          "type": "uint8"
        }
      ],
      "name": "comprarProduto",
      "outputs": [
        {
          "name": "",
          "type": "bytes32"
        }
      ],
      "payable": true,
      "stateMutability": "payable",
      "type": "function"
    },
    {
      "constant": true,
      "inputs": [
        {
          "name": "codBar",
          "type": "uint256"
        }
      ],
      "name": "getNameProduto",
      "outputs": [
        {
          "name": "",
          "type": "string"
        }
      ],
      "payable": false,
      "stateMutability": "view",
      "type": "function"
    },
    {
      "constant": false,
      "inputs": [],
      "name": "transferirFunds",
      "outputs": [],
      "payable": false,
      "stateMutability": "nonpayable",
      "type": "function"
    }
  ],
  "bytecode": "0x608060405234801561001057600080fd5b5033600260006101000a81548173ffffffffffffffffffffffffffffffffffffffff021916908373ffffffffffffffffffffffffffffffffffffffff1602179055506000600381905550610a2d806100696000396000f3fe60806040526004361061004a5760003560e01c80630aabb1fe1461004f5780635f1c40a0146101505780635fe14dbb146101d9578063c273c2fa14610228578063f89685721461023f575b600080fd5b34801561005b57600080fd5b506101366004803603608081101561007257600080fd5b81019080803590602001909291908035906020019064010000000081111561009957600080fd5b8201836020820111156100ab57600080fd5b803590602001918460018302840111640100000000831117156100cd57600080fd5b91908080601f016020809104026020016040519081016040528093929190818152602001838380828437600081840152601f19601f82011690508083019250505050505050919291929080359060200190929190803560ff1690602001909291905050506102f3565b604051808215151515815260200191505060405180910390f35b34801561015c57600080fd5b506101896004803603602081101561017357600080fd5b8101908080359060200190929190505050610432565b604051808481526020018381526020018273ffffffffffffffffffffffffffffffffffffffff1673ffffffffffffffffffffffffffffffffffffffff168152602001935050505060405180910390f35b610212600480360360408110156101ef57600080fd5b8101908080359060200190929190803560ff16906020019092919050505061047c565b6040518082815260200191505060405180910390f35b34801561023457600080fd5b5061023d6106e8565b005b34801561024b57600080fd5b506102786004803603602081101561026257600080fd5b8101908080359060200190929190505050610803565b6040518080602001828103825283818151815260200191508051906020019080838360005b838110156102b857808201518184015260208101905061029d565b50505050905090810190601f1680156102e55780820380516001836020036101000a031916815260200191505b509250505060405180910390f35b6000600260009054906101000a900473ffffffffffffffffffffffffffffffffffffffff1673ffffffffffffffffffffffffffffffffffffffff163373ffffffffffffffffffffffffffffffffffffffff161461039b576040517f08c379a000000000000000000000000000000000000000000000000000000000815260040180806020018281038252602981526020018061098d6029913960400191505060405180910390fd5b60405180608001604052808681526020018581526020018481526020018360ff168152506000808781526020019081526020016000206000820151816000015560208201518160010190805190602001906103f79291906108ba565b506040820151816002015560608201518160030160006101000a81548160ff021916908360ff16021790555090505060019050949350505050565b60016020528060005260406000206000915090508060000154908060010154908060020160009054906101000a900473ffffffffffffffffffffffffffffffffffffffff16905083565b600080600084815260200190815260200160002060030160009054906101000a900460ff1660ff168260ff1611156104ff576040517f08c379a00000000000000000000000000000000000000000000000000000000081526004018080602001828103825260258152602001806109dd6025913960400191505060405180910390fd5b348260ff16600080868152602001908152602001600020600201540214610571576040517f08c379a000000000000000000000000000000000000000000000000000000000815260040180806020018281038252602d815260200180610960602d913960400191505060405180910390fd5b346003600082825401925050819055508160008085815260200190815260200160002060030160008282829054906101000a900460ff160392506101000a81548160ff021916908360ff160217905550600033844285604051602001808573ffffffffffffffffffffffffffffffffffffffff1673ffffffffffffffffffffffffffffffffffffffff1660601b81526014018481526020018381526020018260ff1660ff1660f81b815260010194505050505060405160208183030381529060405280519060200120905060405180606001604052808581526020014281526020013373ffffffffffffffffffffffffffffffffffffffff1681525060016000838152602001908152602001600020600082015181600001556020820151816001015560408201518160020160006101000a81548173ffffffffffffffffffffffffffffffffffffffff021916908373ffffffffffffffffffffffffffffffffffffffff1602179055509050508091505092915050565b600260009054906101000a900473ffffffffffffffffffffffffffffffffffffffff1673ffffffffffffffffffffffffffffffffffffffff163373ffffffffffffffffffffffffffffffffffffffff161461078e576040517f08c379a00000000000000000000000000000000000000000000000000000000081526004018080602001828103825260278152602001806109b66027913960400191505060405180910390fd5b600260009054906101000a900473ffffffffffffffffffffffffffffffffffffffff1673ffffffffffffffffffffffffffffffffffffffff166108fc6003549081150290604051600060405180830381858888f193505050501580156107f8573d6000803e3d6000fd5b506000600381905550565b60606000808381526020019081526020016000206001018054600181600116156101000203166002900480601f0160208091040260200160405190810160405280929190818152602001828054600181600116156101000203166002900480156108ae5780601f10610883576101008083540402835291602001916108ae565b820191906000526020600020905b81548152906001019060200180831161089157829003601f168201915b50505050509050919050565b828054600181600116156101000203166002900490600052602060002090601f016020900481019282601f106108fb57805160ff1916838001178555610929565b82800160010185558215610929579182015b8281111561092857825182559160200191906001019061090d565b5b509050610936919061093a565b5090565b61095c91905b80821115610958576000816000905550600101610940565b5090565b9056fe4f2076616c6f7220696e666f726d61646f20736520656e636f6e74726120657374c3a12065727261646f212121205663206ec3a36f20c3a920446f6e6f207061726120696e636c7569722050726f7475646f732121215663206ec3a36f20706f73737569207065726d697373c3a36f20706172612073616361722121215175616e74696461646520696e646973706f6e6976656c206e6f206d6f6d656e746f212121a165627a7a7230582004f75451dca90e5f590caf96001be917ca4082078eda3e4daeeef774fe2a40ba0029",
  "source": "pragma solidity >=0.4.21 <0.6.0;\r\n\r\ncontract FrenteLoja {\r\n\r\n    \r\n    struct Produto{\r\n        uint codBar;\r\n        string descricao;\r\n        uint preco;\r\n        uint8 quantidade;\r\n    }\r\n\r\n    struct Venda{\r\n        uint codProduto;\r\n        uint timestamp;\r\n        address buyer;\r\n        \r\n    }\r\n\r\n    mapping (uint => Produto) produtos;\r\n    mapping (bytes32 => Venda) public vendas;\r\n    address payable owner;\r\n    uint valoresVendas;\r\n\r\n    constructor () public {\r\n        owner = msg.sender;\r\n        valoresVendas = 0;\r\n    }\r\n\r\n    function addProdutos(uint bar, string memory des, uint preco, uint8 qtd) public returns(bool) {\r\n        require(msg.sender == owner,\" Vc não é Dono para incluir Protudos!!!\");\r\n       produtos[bar] = (Produto(bar, des, preco, qtd));\r\n        return true;\r\n    }\r\n\r\n    function comprarProduto(uint bar, uint8 qtd) public payable returns(bytes32){\r\n      \r\n      if(qtd > produtos[bar].quantidade){\r\n          revert(\"Quantidade indisponivel no momento!!!\");\r\n      }\r\n      require(produtos[bar].preco * qtd == msg.value, \"O valor informado se encontra está errado!!!\");\r\n      valoresVendas +=  msg.value;\r\n      produtos[bar].quantidade -= qtd;\r\n      bytes32 ven = keccak256(abi.encodePacked(msg.sender, bar, block.timestamp, qtd));\r\n      vendas[ven] = (Venda(bar, block.timestamp, msg.sender));\r\n      return ven;\r\n    }\r\n    \r\n    function getNameProduto(uint codBar) public view returns(string memory){\r\n        return produtos[codBar].descricao;\r\n    }\r\n    \r\n      function transferirFunds() public{\r\n        require(msg.sender == owner, \"Vc não possui permissão para sacar!!!\");\r\n        owner.transfer(valoresVendas);\r\n        valoresVendas = 0;\r\n        \r\n    }\r\n   \r\n}",
  "sourcePath": "C:/ws_ethereum/atividadePrevia/contracts/FrenteLoja.sol",
  "compiler": {
    "name": "solc",
    "version": "0.5.8+commit.23d335f2.Emscripten.clang"
  },
  "schemaVersion": "3.0.17",
  "updatedAt": "2019-11-05T00:20:24.997Z",
  "devdoc": {
    "methods": {}
  },
  "userdoc": {
    "methods": {}
  }
}